{
  "contractName": "Identity",
  "abi": [
    {
      "constant": true,
      "inputs": [],
      "name": "name",
      "outputs": [
        {
          "name": "",
          "type": "bytes32"
        }
      ],
      "payable": false,
      "stateMutability": "view",
      "type": "function"
    },
    {
      "constant": true,
      "inputs": [],
      "name": "nationality",
      "outputs": [
        {
          "name": "",
          "type": "bytes32"
        }
      ],
      "payable": false,
      "stateMutability": "view",
      "type": "function"
    },
    {
      "constant": true,
      "inputs": [],
      "name": "manager",
      "outputs": [
        {
          "name": "",
          "type": "address"
        }
      ],
      "payable": false,
      "stateMutability": "view",
      "type": "function"
    },
    {
      "constant": true,
      "inputs": [],
      "name": "birthday",
      "outputs": [
        {
          "name": "",
          "type": "bytes32"
        }
      ],
      "payable": false,
      "stateMutability": "view",
      "type": "function"
    },
    {
      "constant": true,
      "inputs": [],
      "name": "province",
      "outputs": [
        {
          "name": "",
          "type": "bytes32"
        }
      ],
      "payable": false,
      "stateMutability": "view",
      "type": "function"
    },
    {
      "constant": true,
      "inputs": [],
      "name": "gender",
      "outputs": [
        {
          "name": "",
          "type": "uint8"
        }
      ],
      "payable": false,
      "stateMutability": "view",
      "type": "function"
    },
    {
      "constant": true,
      "inputs": [],
      "name": "modificationCount",
      "outputs": [
        {
          "name": "",
          "type": "uint8"
        }
      ],
      "payable": false,
      "stateMutability": "view",
      "type": "function"
    },
    {
      "constant": true,
      "inputs": [],
      "name": "owner",
      "outputs": [
        {
          "name": "",
          "type": "address"
        }
      ],
      "payable": false,
      "stateMutability": "view",
      "type": "function"
    },
    {
      "constant": true,
      "inputs": [
        {
          "name": "",
          "type": "uint256"
        }
      ],
      "name": "documentHashes",
      "outputs": [
        {
          "name": "",
          "type": "bytes32"
        }
      ],
      "payable": false,
      "stateMutability": "view",
      "type": "function"
    },
    {
      "constant": true,
      "inputs": [],
      "name": "id",
      "outputs": [
        {
          "name": "",
          "type": "bytes32"
        }
      ],
      "payable": false,
      "stateMutability": "view",
      "type": "function"
    },
    {
      "constant": true,
      "inputs": [],
      "name": "valid",
      "outputs": [
        {
          "name": "",
          "type": "bool"
        }
      ],
      "payable": false,
      "stateMutability": "view",
      "type": "function"
    },
    {
      "constant": true,
      "inputs": [],
      "name": "city",
      "outputs": [
        {
          "name": "",
          "type": "bytes32"
        }
      ],
      "payable": false,
      "stateMutability": "view",
      "type": "function"
    },
    {
      "inputs": [
        {
          "name": "_owner",
          "type": "address"
        },
        {
          "name": "_id",
          "type": "bytes32"
        },
        {
          "name": "_name",
          "type": "bytes32"
        },
        {
          "name": "_gender",
          "type": "uint8"
        },
        {
          "name": "_birthday",
          "type": "bytes32"
        },
        {
          "name": "_nationality",
          "type": "bytes32"
        },
        {
          "name": "_province",
          "type": "bytes32"
        },
        {
          "name": "_city",
          "type": "bytes32"
        },
        {
          "name": "_documentHashes",
          "type": "bytes32[]"
        }
      ],
      "payable": false,
      "stateMutability": "nonpayable",
      "type": "constructor"
    },
    {
      "payable": false,
      "stateMutability": "nonpayable",
      "type": "fallback"
    },
    {
      "constant": false,
      "inputs": [
        {
          "name": "_id",
          "type": "bytes32"
        },
        {
          "name": "_name",
          "type": "bytes32"
        },
        {
          "name": "_gender",
          "type": "uint8"
        },
        {
          "name": "_birthday",
          "type": "bytes32"
        },
        {
          "name": "_nationality",
          "type": "bytes32"
        },
        {
          "name": "_province",
          "type": "bytes32"
        },
        {
          "name": "_city",
          "type": "bytes32"
        },
        {
          "name": "_documentHashes",
          "type": "bytes32[]"
        }
      ],
      "name": "modify",
      "outputs": [
        {
          "name": "",
          "type": "bool"
        }
      ],
      "payable": false,
      "stateMutability": "nonpayable",
      "type": "function"
    },
    {
      "constant": false,
      "inputs": [],
      "name": "remove",
      "outputs": [],
      "payable": false,
      "stateMutability": "nonpayable",
      "type": "function"
    },
    {
      "constant": false,
      "inputs": [
        {
          "name": "_validity",
          "type": "bool"
        }
      ],
      "name": "setValidity",
      "outputs": [],
      "payable": false,
      "stateMutability": "nonpayable",
      "type": "function"
    },
    {
      "constant": true,
      "inputs": [],
      "name": "getIdentity",
      "outputs": [
        {
          "name": "",
          "type": "address"
        },
        {
          "name": "",
          "type": "bytes32"
        },
        {
          "name": "",
          "type": "bytes32"
        },
        {
          "name": "",
          "type": "uint8"
        },
        {
          "name": "",
          "type": "bytes32"
        },
        {
          "name": "",
          "type": "bytes32"
        },
        {
          "name": "",
          "type": "bytes32"
        },
        {
          "name": "",
          "type": "bytes32"
        },
        {
          "name": "",
          "type": "bytes32[]"
        },
        {
          "name": "",
          "type": "bool"
        }
      ],
      "payable": false,
      "stateMutability": "view",
      "type": "function"
    },
    {
      "constant": true,
      "inputs": [],
      "name": "getOwner",
      "outputs": [
        {
          "name": "",
          "type": "address"
        }
      ],
      "payable": false,
      "stateMutability": "view",
      "type": "function"
    },
    {
      "constant": true,
      "inputs": [],
      "name": "validated",
      "outputs": [
        {
          "name": "",
          "type": "bool"
        }
      ],
      "payable": false,
      "stateMutability": "view",
      "type": "function"
    }
  ],
  "bytecode": "0x608060405234801561001057600080fd5b50604051610e84380380610e848339810180604052810190808051906020019092919080519060200190929190805190602001909291908051906020019092919080519060200190929190805190602001909291908051906020019092919080519060200190929190805182019291905050506100a38989898989898989896100f2640100000000026401000000009004565b33600960016101000a81548173ffffffffffffffffffffffffffffffffffffffff021916908373ffffffffffffffffffffffffffffffffffffffff160217905550505050505050505050610267565b88600073ffffffffffffffffffffffffffffffffffffffff168173ffffffffffffffffffffffffffffffffffffffff161415151561012f57600080fd5b896000806101000a81548173ffffffffffffffffffffffffffffffffffffffff021916908373ffffffffffffffffffffffffffffffffffffffff1602179055508860018160001916905550876002816000191690555086600360006101000a81548160ff021916908360ff160217905550856004816000191690555084600581600019169055508360068160001916905550826007816000191690555081600890805190602001906101e29291906101ef565b5050505050505050505050565b828054828255906000526020600020908101928215610231579160200282015b8281111561023057825182906000191690559160200191906001019061020f565b5b50905061023e9190610242565b5090565b61026491905b80821115610260576000816000905550600101610248565b5090565b90565b610c0e806102766000396000f3006080604052600436106100fc576000357c0100000000000000000000000000000000000000000000000000000000900463ffffffff16806306fdde031461010b57806320d480371461013e57806336afc6fa14610171578063481c6a75146102825780635f9f4734146102d95780636209cb631461030c57806379caad861461033f578063893d20e8146103705780638ba38cfa146103c75780638da5cb5b146103f85780638e383c6b1461044f578063a7f4377914610498578063af640d0f146104af578063b8a35a01146104e2578063c199121914610511578063e05b653014610540578063efb37a391461061f578063fd0160fe1461064e575b34801561010857600080fd5b50005b34801561011757600080fd5b50610120610681565b60405180826000191660001916815260200191505060405180910390f35b34801561014a57600080fd5b50610153610687565b60405180826000191660001916815260200191505060405180910390f35b34801561017d57600080fd5b5061018661068d565b604051808b73ffffffffffffffffffffffffffffffffffffffff1673ffffffffffffffffffffffffffffffffffffffff1681526020018a6000191660001916815260200189600019166000191681526020018860ff1660ff16815260200187600019166000191681526020018660001916600019168152602001856000191660001916815260200184600019166000191681526020018060200183151515158152602001828103825284818151815260200191508051906020019060200280838360005b8381101561026557808201518184015260208101905061024a565b505050509050019b50505050505050505050505060405180910390f35b34801561028e57600080fd5b50610297610769565b604051808273ffffffffffffffffffffffffffffffffffffffff1673ffffffffffffffffffffffffffffffffffffffff16815260200191505060405180910390f35b3480156102e557600080fd5b506102ee61078f565b60405180826000191660001916815260200191505060405180910390f35b34801561031857600080fd5b50610321610795565b60405180826000191660001916815260200191505060405180910390f35b34801561034b57600080fd5b5061035461079b565b604051808260ff1660ff16815260200191505060405180910390f35b34801561037c57600080fd5b506103856107ae565b604051808273ffffffffffffffffffffffffffffffffffffffff1673ffffffffffffffffffffffffffffffffffffffff16815260200191505060405180910390f35b3480156103d357600080fd5b506103dc6107d7565b604051808260ff1660ff16815260200191505060405180910390f35b34801561040457600080fd5b5061040d6107ea565b604051808273ffffffffffffffffffffffffffffffffffffffff1673ffffffffffffffffffffffffffffffffffffffff16815260200191505060405180910390f35b34801561045b57600080fd5b5061047a6004803603810190808035906020019092919050505061080f565b60405180826000191660001916815260200191505060405180910390f35b3480156104a457600080fd5b506104ad610832565b005b3480156104bb57600080fd5b506104c46108c8565b60405180826000191660001916815260200191505060405180910390f35b3480156104ee57600080fd5b5061050f6004803603810190808035151590602001909291905050506108ce565b005b34801561051d57600080fd5b50610526610947565b604051808215151515815260200191505060405180910390f35b34801561054c57600080fd5b5061060560048036038101908080356000191690602001909291908035600019169060200190929190803560ff16906020019092919080356000191690602001909291908035600019169060200190929190803560001916906020019092919080356000191690602001909291908035906020019082018035906020019080806020026020016040519081016040528093929190818152602001838360200280828437820191505050505050919291929050505061095a565b604051808215151515815260200191505060405180910390f35b34801561062b57600080fd5b50610634610a50565b604051808215151515815260200191505060405180910390f35b34801561065a57600080fd5b50610663610a67565b60405180826000191660001916815260200191505060405180910390f35b60025481565b60055481565b600080600080600080600080606060008060009054906101000a900473ffffffffffffffffffffffffffffffffffffffff16600154600254600360009054906101000a900460ff166004546005546006546007546008600960009054906101000a900460ff168180548060200260200160405190810160405280929190818152602001828054801561074257602002820191906000526020600020905b8154600019168152602001906001019080831161072a575b50505050509150995099509950995099509950995099509950995090919293949596979899565b600960019054906101000a900473ffffffffffffffffffffffffffffffffffffffff1681565b60045481565b60065481565b600360009054906101000a900460ff1681565b60008060009054906101000a900473ffffffffffffffffffffffffffffffffffffffff16905090565b600960159054906101000a900460ff1681565b6000809054906101000a900473ffffffffffffffffffffffffffffffffffffffff1681565b60088181548110151561081e57fe5b906000526020600020016000915090505481565b600960019054906101000a900473ffffffffffffffffffffffffffffffffffffffff1673ffffffffffffffffffffffffffffffffffffffff163373ffffffffffffffffffffffffffffffffffffffff1614151561088e57600080fd5b6000809054906101000a900473ffffffffffffffffffffffffffffffffffffffff1673ffffffffffffffffffffffffffffffffffffffff16ff5b60015481565b600960019054906101000a900473ffffffffffffffffffffffffffffffffffffffff1673ffffffffffffffffffffffffffffffffffffffff163373ffffffffffffffffffffffffffffffffffffffff1614151561092a57600080fd5b80600960006101000a81548160ff02191690831515021790555050565b600960009054906101000a900460ff1681565b6000600960019054906101000a900473ffffffffffffffffffffffffffffffffffffffff1673ffffffffffffffffffffffffffffffffffffffff163373ffffffffffffffffffffffffffffffffffffffff161415156109b857600080fd5b603260ff16600960159054906101000a900460ff1660ff161015156109dc57600080fd5b6009601581819054906101000a900460ff168092919060010191906101000a81548160ff021916908360ff16021790555050610a406000809054906101000a900473ffffffffffffffffffffffffffffffffffffffff168a8a8a8a8a8a8a8a610a6d565b6001905098975050505050505050565b6000600960009054906101000a900460ff16905090565b60075481565b88600073ffffffffffffffffffffffffffffffffffffffff168173ffffffffffffffffffffffffffffffffffffffff1614151515610aaa57600080fd5b896000806101000a81548173ffffffffffffffffffffffffffffffffffffffff021916908373ffffffffffffffffffffffffffffffffffffffff1602179055508860018160001916905550876002816000191690555086600360006101000a81548160ff021916908360ff16021790555085600481600019169055508460058160001916905550836006816000191690555082600781600019169055508160089080519060200190610b5d929190610b6a565b5050505050505050505050565b828054828255906000526020600020908101928215610bac579160200282015b82811115610bab578251829060001916905591602001919060010190610b8a565b5b509050610bb99190610bbd565b5090565b610bdf91905b80821115610bdb576000816000905550600101610bc3565b5090565b905600a165627a7a72305820eccedfe47c244ef4a4eae64fa2eae9699b131106125513b4bbbac99d20a7c5160029",
  "source": "/**\r\n * @file Identity.sol\r\n * @author sufay\r\n *\r\n * Identity contract\r\n */\r\n\r\npragma solidity ^0.4.19;\r\n\r\n\r\n/**\r\n * @title Identity\r\n * @dev a contract representing an identity\r\n */\r\ncontract Identity {\r\n    // identity data\r\n    address public owner; // the owner of the identity\r\n    bytes32 public id;\r\n    bytes32 public name;\r\n    uint8 public gender;\r\n    bytes32 public birthday;\r\n    bytes32 public nationality;\r\n    bytes32 public province;\r\n    bytes32 public city;\r\n    bytes32[] public documentHashes; // the hashes of the variety of documents\r\n    bool public valid; // validity\r\n\r\n    // identity manager\r\n    address public manager;\r\n\r\n    // modification count\r\n    uint8 public modificationCount;\r\n    // max modification num\r\n    uint8 constant MAX_MODIFICATION_NUM = 50;\r\n\r\n    /**\r\n     * @dev assert the sender is the owner\r\n     */\r\n    modifier onlyOwner() {\r\n        require(msg.sender == owner);\r\n        _;\r\n    }\r\n\r\n    /**\r\n     * @dev assert the sender is the manager\r\n     */\r\n    modifier onlyManager() {\r\n        require(msg.sender == manager);\r\n        _;\r\n    }\r\n\r\n    /**\r\n     * @dev assert an address is valid, that is, it isn't equal to 0\r\n     * @param addr address to be checked\r\n     */\r\n    modifier addressValid(address addr) {\r\n        require(addr != address(0));\r\n        _;\r\n    }\r\n\r\n    /**\r\n     * @dev assert the modification count doesn't exceed the limit\r\n     */\r\n    modifier modifiable() {\r\n        require(modificationCount < MAX_MODIFICATION_NUM);\r\n        _;\r\n    }\r\n\r\n    /** \r\n     * @dev constructor\r\n     * @param _owner identity owner\r\n     * @param _id id\r\n     * @param _name name\r\n     * @param _gender gender\r\n     * @param _birthday birthday\r\n     * @param _nationality nationality\r\n     * @param _province province\r\n     * @param _city city\r\n     * @param _documentHashes the hashes of documents\r\n     */\r\n    constructor(\r\n        address _owner,\r\n        bytes32 _id,\r\n        bytes32 _name,\r\n        uint8 _gender,\r\n        bytes32 _birthday,\r\n        bytes32 _nationality,\r\n        bytes32 _province,\r\n        bytes32 _city,\r\n        bytes32[] _documentHashes\r\n    )\r\n        public\r\n    {\r\n        // set the identity data\r\n        set(_owner, _id, _name, _gender, _birthday, _nationality, _province, _city, _documentHashes);\r\n    \r\n        // set the manager\r\n        manager = msg.sender;\r\n    }\r\n\r\n    /**\r\n     * @dev fallback is noop function\r\n     */\r\n    function() public {\r\n        // noop\r\n    }\r\n\r\n    /** \r\n     * @dev modify the identity data\r\n     * @param _id id\r\n     * @param _name name\r\n     * @param _gender gender\r\n     * @param _birthday birthday\r\n     * @param _nationality nationality\r\n     * @param _province province\r\n     * @param _city city\r\n     * @param _documentHashes the hashes of documents\r\n     * @return true if successful\r\n     */\r\n    function modify(\r\n        bytes32 _id,\r\n        bytes32 _name,\r\n        uint8 _gender,\r\n        bytes32 _birthday,\r\n        bytes32 _nationality,\r\n        bytes32 _province,\r\n        bytes32 _city,\r\n        bytes32[] _documentHashes\r\n    )\r\n        public\r\n        onlyManager\r\n        modifiable\r\n        returns (bool)\r\n    {\r\n        // increase the modificaton count\r\n        modificationCount++;\r\n\r\n        // set the identity data\r\n        set(owner, _id, _name, _gender, _birthday, _nationality, _province, _city, _documentHashes);\r\n        \r\n        return true;\r\n    }\r\n    \r\n    /**\r\n     * @dev remove the identity\r\n     * @return true if successful\r\n     */\r\n    function remove() public onlyManager {\r\n        selfdestruct(owner);\r\n    }\r\n    \r\n    /** \r\n     * @dev set the identity data\r\n     * @param _owner identity owner\r\n     * @param _id id\r\n     * @param _name name\r\n     * @param _gender gender\r\n     * @param _birthday birthday\r\n     * @param _nationality nationality\r\n     * @param _province province\r\n     * @param _city city\r\n     * @param _documentHashes the hashes of documents\r\n     */\r\n    function set(\r\n        address _owner,\r\n        bytes32 _id,\r\n        bytes32 _name,\r\n        uint8 _gender,\r\n        bytes32 _birthday,\r\n        bytes32 _nationality,\r\n        bytes32 _province,\r\n        bytes32 _city,\r\n        bytes32[] _documentHashes\r\n    )\r\n        internal\r\n        addressValid(_owner)\r\n    {\r\n        owner = _owner;\r\n        id = _id;\r\n        name = _name;\r\n        gender = _gender;\r\n        birthday = _birthday;\r\n        nationality = _nationality;\r\n        province = _province;\r\n        city = _city;\r\n        documentHashes = _documentHashes;\r\n    }\r\n\r\n    /**\r\n     * @dev set the validity of the identity\r\n     * @param _validity validity to be set\r\n     */\r\n    function setValidity(bool _validity) external onlyManager {\r\n        valid = _validity;\r\n    }\r\n\r\n    /**\r\n     * @dev get the identity data\r\n     * @return identity data\r\n     */\r\n    function getIdentity() public view returns (address, bytes32, bytes32, uint8, bytes32, bytes32, bytes32, bytes32, bytes32[], bool) {\r\n        return (owner, id, name, gender, birthday, nationality, province, city, documentHashes, valid);\r\n    }\r\n\r\n    /**\r\n     * @dev get the owner\r\n     * @return the owner\r\n     */\r\n    function getOwner() public view returns (address) {\r\n        return owner;\r\n    }\r\n\r\n    /**\r\n     * @dev get the validity\r\n     * @return validity\r\n     */\r\n    function validated() public view returns (bool) {\r\n        return valid;\r\n    }\r\n}\r\n",
  "sourcePath": "E:\\dear\\Project\\solidity\\Identity\\tmp-8004gNGxTKDeo58w\\box\\contracts\\Identity.sol",
  "compiler": {
    "name": "solc",
    "version": "0.4.24+commit.e67f0147.Emscripten.clang"
  },
  "schemaVersion": "2.0.1",
  "updatedAt": "2018-08-16T12:56:29.282Z"
}