{
  "contractName": "IdentityManager",
  "abi": [
    {
      "constant": true,
      "inputs": [],
      "name": "identityCount",
      "outputs": [
        {
          "name": "",
          "type": "uint256"
        }
      ],
      "payable": false,
      "stateMutability": "view",
      "type": "function"
    },
    {
      "constant": true,
      "inputs": [
        {
          "name": "",
          "type": "address"
        }
      ],
      "name": "identityMap",
      "outputs": [
        {
          "name": "",
          "type": "address"
        }
      ],
      "payable": false,
      "stateMutability": "view",
      "type": "function"
    },
    {
      "constant": true,
      "inputs": [],
      "name": "admin",
      "outputs": [
        {
          "name": "",
          "type": "address"
        }
      ],
      "payable": false,
      "stateMutability": "view",
      "type": "function"
    },
    {
      "inputs": [],
      "payable": false,
      "stateMutability": "nonpayable",
      "type": "constructor"
    },
    {
      "payable": false,
      "stateMutability": "nonpayable",
      "type": "fallback"
    },
    {
      "anonymous": false,
      "inputs": [
        {
          "indexed": true,
          "name": "_owner",
          "type": "address"
        },
        {
          "indexed": true,
          "name": "_identity",
          "type": "address"
        }
      ],
      "name": "IdentityCreated",
      "type": "event"
    },
    {
      "anonymous": false,
      "inputs": [
        {
          "indexed": true,
          "name": "_owner",
          "type": "address"
        },
        {
          "indexed": true,
          "name": "_identity",
          "type": "address"
        }
      ],
      "name": "IdentityChanged",
      "type": "event"
    },
    {
      "anonymous": false,
      "inputs": [
        {
          "indexed": true,
          "name": "_owner",
          "type": "address"
        },
        {
          "indexed": true,
          "name": "_identity",
          "type": "address"
        }
      ],
      "name": "IdentityRemoved",
      "type": "event"
    },
    {
      "anonymous": false,
      "inputs": [
        {
          "indexed": true,
          "name": "_owner",
          "type": "address"
        },
        {
          "indexed": true,
          "name": "_identity",
          "type": "address"
        },
        {
          "indexed": true,
          "name": "_validity",
          "type": "bool"
        }
      ],
      "name": "IdentityValiditySet",
      "type": "event"
    },
    {
      "constant": false,
      "inputs": [
        {
          "name": "_id",
          "type": "bytes32"
        },
        {
          "name": "_name",
          "type": "bytes32"
        },
        {
          "name": "_gender",
          "type": "uint8"
        },
        {
          "name": "_birthday",
          "type": "bytes32"
        },
        {
          "name": "_nationality",
          "type": "bytes32"
        },
        {
          "name": "_province",
          "type": "bytes32"
        },
        {
          "name": "_city",
          "type": "bytes32"
        },
        {
          "name": "_documentHashes",
          "type": "bytes32[]"
        }
      ],
      "name": "createIdentity",
      "outputs": [
        {
          "name": "",
          "type": "bool"
        }
      ],
      "payable": false,
      "stateMutability": "nonpayable",
      "type": "function"
    },
    {
      "constant": false,
      "inputs": [
        {
          "name": "_id",
          "type": "bytes32"
        },
        {
          "name": "_name",
          "type": "bytes32"
        },
        {
          "name": "_gender",
          "type": "uint8"
        },
        {
          "name": "_birthday",
          "type": "bytes32"
        },
        {
          "name": "_nationality",
          "type": "bytes32"
        },
        {
          "name": "_province",
          "type": "bytes32"
        },
        {
          "name": "_city",
          "type": "bytes32"
        },
        {
          "name": "_documentHashes",
          "type": "bytes32[]"
        }
      ],
      "name": "modifyIdentity",
      "outputs": [
        {
          "name": "",
          "type": "bool"
        }
      ],
      "payable": false,
      "stateMutability": "nonpayable",
      "type": "function"
    },
    {
      "constant": false,
      "inputs": [],
      "name": "removeIdentity",
      "outputs": [
        {
          "name": "",
          "type": "bool"
        }
      ],
      "payable": false,
      "stateMutability": "nonpayable",
      "type": "function"
    },
    {
      "constant": false,
      "inputs": [
        {
          "name": "_owner",
          "type": "address"
        },
        {
          "name": "_validity",
          "type": "bool"
        }
      ],
      "name": "setIdentityValidity",
      "outputs": [
        {
          "name": "",
          "type": "bool"
        }
      ],
      "payable": false,
      "stateMutability": "nonpayable",
      "type": "function"
    },
    {
      "constant": true,
      "inputs": [
        {
          "name": "_owner",
          "type": "address"
        }
      ],
      "name": "getIdentityData",
      "outputs": [
        {
          "name": "",
          "type": "address"
        },
        {
          "name": "",
          "type": "bytes32"
        },
        {
          "name": "",
          "type": "bytes32"
        },
        {
          "name": "",
          "type": "uint8"
        },
        {
          "name": "",
          "type": "bytes32"
        },
        {
          "name": "",
          "type": "bytes32"
        },
        {
          "name": "",
          "type": "bytes32"
        },
        {
          "name": "",
          "type": "bytes32"
        },
        {
          "name": "",
          "type": "bytes32[]"
        },
        {
          "name": "",
          "type": "bool"
        }
      ],
      "payable": false,
      "stateMutability": "view",
      "type": "function"
    },
    {
      "constant": true,
      "inputs": [
        {
          "name": "_owner",
          "type": "address"
        }
      ],
      "name": "getIdentityAddress",
      "outputs": [
        {
          "name": "",
          "type": "address"
        }
      ],
      "payable": false,
      "stateMutability": "view",
      "type": "function"
    },
    {
      "constant": true,
      "inputs": [
        {
          "name": "_address",
          "type": "address"
        }
      ],
      "name": "identityExists",
      "outputs": [
        {
          "name": "",
          "type": "bool"
        }
      ],
      "payable": false,
      "stateMutability": "view",
      "type": "function"
    },
    {
      "constant": true,
      "inputs": [
        {
          "name": "_owner",
          "type": "address"
        }
      ],
      "name": "identityValid",
      "outputs": [
        {
          "name": "",
          "type": "bool"
        }
      ],
      "payable": false,
      "stateMutability": "view",
      "type": "function"
    },
    {
      "constant": true,
      "inputs": [],
      "name": "getIdentityCount",
      "outputs": [
        {
          "name": "",
          "type": "uint256"
        }
      ],
      "payable": false,
      "stateMutability": "view",
      "type": "function"
    }
  ],
  "bytecode": "0x608060405234801561001057600080fd5b5033600260006101000a81548173ffffffffffffffffffffffffffffffffffffffff021916908373ffffffffffffffffffffffffffffffffffffffff160217905550612560806100616000396000f3006080604052600436106100ba576000357c0100000000000000000000000000000000000000000000000000000000900463ffffffff1680630fff3d0d146100c957806310fd8637146101a857806336fcbbda1461020f578063383564f91461034c57806338678ba51461042b5780634d221b8514610456578063652cec06146104b1578063a19b8668146104dc578063c37c596f1461055f578063dfccf23f1461058e578063f851a44014610611578063f87a917f14610668575b3480156100c657600080fd5b50005b3480156100d557600080fd5b5061018e60048036038101908080356000191690602001909291908035600019169060200190929190803560ff1690602001909291908035600019169060200190929190803560001916906020019092919080356000191690602001909291908035600019169060200190929190803590602001908201803590602001908080602002602001604051908101604052809392919081815260200183836020028082843782019150505050505091929192905050506106c3565b604051808215151515815260200191505060405180910390f35b3480156101b457600080fd5b506101f5600480360381019080803573ffffffffffffffffffffffffffffffffffffffff16906020019092919080351515906020019092919050505061096e565b604051808215151515815260200191505060405180910390f35b34801561021b57600080fd5b50610250600480360381019080803573ffffffffffffffffffffffffffffffffffffffff169060200190929190505050610bbf565b604051808b73ffffffffffffffffffffffffffffffffffffffff1673ffffffffffffffffffffffffffffffffffffffff1681526020018a6000191660001916815260200189600019166000191681526020018860ff1660ff16815260200187600019166000191681526020018660001916600019168152602001856000191660001916815260200184600019166000191681526020018060200183151515158152602001828103825284818151815260200191508051906020019060200280838360005b8381101561032f578082015181840152602081019050610314565b505050509050019b50505050505050505050505060405180910390f35b34801561035857600080fd5b5061041160048036038101908080356000191690602001909291908035600019169060200190929190803560ff169060200190929190803560001916906020019092919080356000191690602001909291908035600019169060200190929190803560001916906020019092919080359060200190820180359060200190808060200260200160405190810160405280939291908181526020018383602002808284378201915050505050509192919290505050610e42565b604051808215151515815260200191505060405180910390f35b34801561043757600080fd5b50610440611113565b6040518082815260200191505060405180910390f35b34801561046257600080fd5b50610497600480360381019080803573ffffffffffffffffffffffffffffffffffffffff169060200190929190505050611119565b604051808215151515815260200191505060405180910390f35b3480156104bd57600080fd5b506104c66111c1565b6040518082815260200191505060405180910390f35b3480156104e857600080fd5b5061051d600480360381019080803573ffffffffffffffffffffffffffffffffffffffff1690602001909291905050506111cb565b604051808273ffffffffffffffffffffffffffffffffffffffff1673ffffffffffffffffffffffffffffffffffffffff16815260200191505060405180910390f35b34801561056b57600080fd5b50610574611233565b604051808215151515815260200191505060405180910390f35b34801561059a57600080fd5b506105cf600480360381019080803573ffffffffffffffffffffffffffffffffffffffff1690602001909291905050506114a0565b604051808273ffffffffffffffffffffffffffffffffffffffff1673ffffffffffffffffffffffffffffffffffffffff16815260200191505060405180910390f35b34801561061d57600080fd5b506106266114d3565b604051808273ffffffffffffffffffffffffffffffffffffffff1673ffffffffffffffffffffffffffffffffffffffff16815260200191505060405180910390f35b34801561067457600080fd5b506106a9600480360381019080803573ffffffffffffffffffffffffffffffffffffffff1690602001909291905050506114f9565b604051808215151515815260200191505060405180910390f35b600080600073ffffffffffffffffffffffffffffffffffffffff166000803373ffffffffffffffffffffffffffffffffffffffff1673ffffffffffffffffffffffffffffffffffffffff16815260200190815260200160002060009054906101000a900473ffffffffffffffffffffffffffffffffffffffff1673ffffffffffffffffffffffffffffffffffffffff1614151561075f57600080fd5b338a8a8a8a8a8a8a8a6107706116a0565b808a73ffffffffffffffffffffffffffffffffffffffff1673ffffffffffffffffffffffffffffffffffffffff168152602001896000191660001916815260200188600019166000191681526020018760ff1660ff168152602001866000191660001916815260200185600019166000191681526020018460001916600019168152602001836000191660001916815260200180602001828103825283818151815260200191508051906020019060200280838360005b83811015610842578082015181840152602081019050610827565b505050509050019a5050505050505050505050604051809103906000f080158015610871573d6000803e3d6000fd5b509050806000803373ffffffffffffffffffffffffffffffffffffffff1673ffffffffffffffffffffffffffffffffffffffff16815260200190815260200160002060006101000a81548173ffffffffffffffffffffffffffffffffffffffff021916908373ffffffffffffffffffffffffffffffffffffffff1602179055506001600081548092919060010191905055508073ffffffffffffffffffffffffffffffffffffffff163373ffffffffffffffffffffffffffffffffffffffff167f45afe31e3a48a54e27da1d1f2ec6c6e272ce5838616e0d61071b223bceb5c69060405160405180910390a3600191505098975050505050505050565b60008083600073ffffffffffffffffffffffffffffffffffffffff166000808373ffffffffffffffffffffffffffffffffffffffff1673ffffffffffffffffffffffffffffffffffffffff16815260200190815260200160002060009054906101000a900473ffffffffffffffffffffffffffffffffffffffff1673ffffffffffffffffffffffffffffffffffffffff1614151515610a0c57600080fd5b33600260009054906101000a900473ffffffffffffffffffffffffffffffffffffffff1673ffffffffffffffffffffffffffffffffffffffff168173ffffffffffffffffffffffffffffffffffffffff16141515610a6957600080fd5b6000808773ffffffffffffffffffffffffffffffffffffffff1673ffffffffffffffffffffffffffffffffffffffff16815260200190815260200160002060009054906101000a900473ffffffffffffffffffffffffffffffffffffffff1692508273ffffffffffffffffffffffffffffffffffffffff1663b8a35a01866040518263ffffffff167c01000000000000000000000000000000000000000000000000000000000281526004018082151515158152602001915050600060405180830381600087803b158015610b3d57600080fd5b505af1158015610b51573d6000803e3d6000fd5b505050508415158373ffffffffffffffffffffffffffffffffffffffff168773ffffffffffffffffffffffffffffffffffffffff167f2bd8a1a8452437918f3714af73a007f1e4658bf35153efbdf4936b4d82b4cb1b60405160405180910390a46001935050505092915050565b60008060008060008060008060606000808b600073ffffffffffffffffffffffffffffffffffffffff166000808373ffffffffffffffffffffffffffffffffffffffff1673ffffffffffffffffffffffffffffffffffffffff16815260200190815260200160002060009054906101000a900473ffffffffffffffffffffffffffffffffffffffff1673ffffffffffffffffffffffffffffffffffffffff1614151515610c6b57600080fd5b6000808e73ffffffffffffffffffffffffffffffffffffffff1673ffffffffffffffffffffffffffffffffffffffff16815260200190815260200160002060009054906101000a900473ffffffffffffffffffffffffffffffffffffffff1691508173ffffffffffffffffffffffffffffffffffffffff166336afc6fa6040518163ffffffff167c0100000000000000000000000000000000000000000000000000000000028152600401600060405180830381600087803b158015610d3057600080fd5b505af1158015610d44573d6000803e3d6000fd5b505050506040513d6000823e3d601f19601f82011682018060405250610140811015610d6f57600080fd5b8101908080519060200190929190805190602001909291908051906020019092919080519060200190929190805190602001909291908051906020019092919080519060200190929190805190602001909291908051640100000000811115610dd757600080fd5b82810190506020810184811115610ded57600080fd5b8151856020820283011164010000000082111715610e0a57600080fd5b5050929190602001805190602001909291905050509b509b509b509b509b509b509b509b509b509b5050509193959799509193959799565b600080600073ffffffffffffffffffffffffffffffffffffffff166000803373ffffffffffffffffffffffffffffffffffffffff1673ffffffffffffffffffffffffffffffffffffffff16815260200190815260200160002060009054906101000a900473ffffffffffffffffffffffffffffffffffffffff1673ffffffffffffffffffffffffffffffffffffffff1614151515610edf57600080fd5b6000803373ffffffffffffffffffffffffffffffffffffffff1673ffffffffffffffffffffffffffffffffffffffff16815260200190815260200160002060009054906101000a900473ffffffffffffffffffffffffffffffffffffffff1690508073ffffffffffffffffffffffffffffffffffffffff1663e05b65308b8b8b8b8b8b8b8b6040518963ffffffff167c010000000000000000000000000000000000000000000000000000000002815260040180896000191660001916815260200188600019166000191681526020018760ff1660ff168152602001866000191660001916815260200185600019166000191681526020018460001916600019168152602001836000191660001916815260200180602001828103825283818151815260200191508051906020019060200280838360005b83811015611032578082015181840152602081019050611017565b505050509050019950505050505050505050602060405180830381600087803b15801561105e57600080fd5b505af1158015611072573d6000803e3d6000fd5b505050506040513d602081101561108857600080fd5b810190808051906020019092919050505015611101578073ffffffffffffffffffffffffffffffffffffffff163373ffffffffffffffffffffffffffffffffffffffff167fedee5278d46994d7a8b910faad8b422027fe9187bbbe5b5562b83e820f83bbb960405160405180910390a360019150611106565b600091505b5098975050505050505050565b60015481565b60008073ffffffffffffffffffffffffffffffffffffffff166000808473ffffffffffffffffffffffffffffffffffffffff1673ffffffffffffffffffffffffffffffffffffffff16815260200190815260200160002060009054906101000a900473ffffffffffffffffffffffffffffffffffffffff1673ffffffffffffffffffffffffffffffffffffffff161415156111b757600190506111bc565b600090505b919050565b6000600154905090565b60008060008373ffffffffffffffffffffffffffffffffffffffff1673ffffffffffffffffffffffffffffffffffffffff16815260200190815260200160002060009054906101000a900473ffffffffffffffffffffffffffffffffffffffff169050919050565b600080600073ffffffffffffffffffffffffffffffffffffffff166000803373ffffffffffffffffffffffffffffffffffffffff1673ffffffffffffffffffffffffffffffffffffffff16815260200190815260200160002060009054906101000a900473ffffffffffffffffffffffffffffffffffffffff1673ffffffffffffffffffffffffffffffffffffffff16141515156112d057600080fd5b6000803373ffffffffffffffffffffffffffffffffffffffff1673ffffffffffffffffffffffffffffffffffffffff16815260200190815260200160002060009054906101000a900473ffffffffffffffffffffffffffffffffffffffff1690508073ffffffffffffffffffffffffffffffffffffffff1663a7f437796040518163ffffffff167c0100000000000000000000000000000000000000000000000000000000028152600401600060405180830381600087803b15801561139557600080fd5b505af11580156113a9573d6000803e3d6000fd5b5050505060008060003373ffffffffffffffffffffffffffffffffffffffff1673ffffffffffffffffffffffffffffffffffffffff16815260200190815260200160002060006101000a81548173ffffffffffffffffffffffffffffffffffffffff021916908373ffffffffffffffffffffffffffffffffffffffff160217905550600160008154809291906001900391905055508073ffffffffffffffffffffffffffffffffffffffff163373ffffffffffffffffffffffffffffffffffffffff167f59d6590e225b81befe259af056324092801080acbb7feab310eb34678871f32760405160405180910390a3600191505090565b60006020528060005260406000206000915054906101000a900473ffffffffffffffffffffffffffffffffffffffff1681565b600260009054906101000a900473ffffffffffffffffffffffffffffffffffffffff1681565b60008082600073ffffffffffffffffffffffffffffffffffffffff166000808373ffffffffffffffffffffffffffffffffffffffff1673ffffffffffffffffffffffffffffffffffffffff16815260200190815260200160002060009054906101000a900473ffffffffffffffffffffffffffffffffffffffff1673ffffffffffffffffffffffffffffffffffffffff161415151561159757600080fd5b6000808573ffffffffffffffffffffffffffffffffffffffff1673ffffffffffffffffffffffffffffffffffffffff16815260200190815260200160002060009054906101000a900473ffffffffffffffffffffffffffffffffffffffff1691508173ffffffffffffffffffffffffffffffffffffffff1663efb37a396040518163ffffffff167c0100000000000000000000000000000000000000000000000000000000028152600401602060405180830381600087803b15801561165c57600080fd5b505af1158015611670573d6000803e3d6000fd5b505050506040513d602081101561168657600080fd5b810190808051906020019092919050505092505050919050565b604051610e84806116b1833901905600608060405234801561001057600080fd5b50604051610e84380380610e848339810180604052810190808051906020019092919080519060200190929190805190602001909291908051906020019092919080519060200190929190805190602001909291908051906020019092919080519060200190929190805182019291905050506100a38989898989898989896100f2640100000000026401000000009004565b33600960016101000a81548173ffffffffffffffffffffffffffffffffffffffff021916908373ffffffffffffffffffffffffffffffffffffffff160217905550505050505050505050610267565b88600073ffffffffffffffffffffffffffffffffffffffff168173ffffffffffffffffffffffffffffffffffffffff161415151561012f57600080fd5b896000806101000a81548173ffffffffffffffffffffffffffffffffffffffff021916908373ffffffffffffffffffffffffffffffffffffffff1602179055508860018160001916905550876002816000191690555086600360006101000a81548160ff021916908360ff160217905550856004816000191690555084600581600019169055508360068160001916905550826007816000191690555081600890805190602001906101e29291906101ef565b5050505050505050505050565b828054828255906000526020600020908101928215610231579160200282015b8281111561023057825182906000191690559160200191906001019061020f565b5b50905061023e9190610242565b5090565b61026491905b80821115610260576000816000905550600101610248565b5090565b90565b610c0e806102766000396000f3006080604052600436106100fc576000357c0100000000000000000000000000000000000000000000000000000000900463ffffffff16806306fdde031461010b57806320d480371461013e57806336afc6fa14610171578063481c6a75146102825780635f9f4734146102d95780636209cb631461030c57806379caad861461033f578063893d20e8146103705780638ba38cfa146103c75780638da5cb5b146103f85780638e383c6b1461044f578063a7f4377914610498578063af640d0f146104af578063b8a35a01146104e2578063c199121914610511578063e05b653014610540578063efb37a391461061f578063fd0160fe1461064e575b34801561010857600080fd5b50005b34801561011757600080fd5b50610120610681565b60405180826000191660001916815260200191505060405180910390f35b34801561014a57600080fd5b50610153610687565b60405180826000191660001916815260200191505060405180910390f35b34801561017d57600080fd5b5061018661068d565b604051808b73ffffffffffffffffffffffffffffffffffffffff1673ffffffffffffffffffffffffffffffffffffffff1681526020018a6000191660001916815260200189600019166000191681526020018860ff1660ff16815260200187600019166000191681526020018660001916600019168152602001856000191660001916815260200184600019166000191681526020018060200183151515158152602001828103825284818151815260200191508051906020019060200280838360005b8381101561026557808201518184015260208101905061024a565b505050509050019b50505050505050505050505060405180910390f35b34801561028e57600080fd5b50610297610769565b604051808273ffffffffffffffffffffffffffffffffffffffff1673ffffffffffffffffffffffffffffffffffffffff16815260200191505060405180910390f35b3480156102e557600080fd5b506102ee61078f565b60405180826000191660001916815260200191505060405180910390f35b34801561031857600080fd5b50610321610795565b60405180826000191660001916815260200191505060405180910390f35b34801561034b57600080fd5b5061035461079b565b604051808260ff1660ff16815260200191505060405180910390f35b34801561037c57600080fd5b506103856107ae565b604051808273ffffffffffffffffffffffffffffffffffffffff1673ffffffffffffffffffffffffffffffffffffffff16815260200191505060405180910390f35b3480156103d357600080fd5b506103dc6107d7565b604051808260ff1660ff16815260200191505060405180910390f35b34801561040457600080fd5b5061040d6107ea565b604051808273ffffffffffffffffffffffffffffffffffffffff1673ffffffffffffffffffffffffffffffffffffffff16815260200191505060405180910390f35b34801561045b57600080fd5b5061047a6004803603810190808035906020019092919050505061080f565b60405180826000191660001916815260200191505060405180910390f35b3480156104a457600080fd5b506104ad610832565b005b3480156104bb57600080fd5b506104c46108c8565b60405180826000191660001916815260200191505060405180910390f35b3480156104ee57600080fd5b5061050f6004803603810190808035151590602001909291905050506108ce565b005b34801561051d57600080fd5b50610526610947565b604051808215151515815260200191505060405180910390f35b34801561054c57600080fd5b5061060560048036038101908080356000191690602001909291908035600019169060200190929190803560ff16906020019092919080356000191690602001909291908035600019169060200190929190803560001916906020019092919080356000191690602001909291908035906020019082018035906020019080806020026020016040519081016040528093929190818152602001838360200280828437820191505050505050919291929050505061095a565b604051808215151515815260200191505060405180910390f35b34801561062b57600080fd5b50610634610a50565b604051808215151515815260200191505060405180910390f35b34801561065a57600080fd5b50610663610a67565b60405180826000191660001916815260200191505060405180910390f35b60025481565b60055481565b600080600080600080600080606060008060009054906101000a900473ffffffffffffffffffffffffffffffffffffffff16600154600254600360009054906101000a900460ff166004546005546006546007546008600960009054906101000a900460ff168180548060200260200160405190810160405280929190818152602001828054801561074257602002820191906000526020600020905b8154600019168152602001906001019080831161072a575b50505050509150995099509950995099509950995099509950995090919293949596979899565b600960019054906101000a900473ffffffffffffffffffffffffffffffffffffffff1681565b60045481565b60065481565b600360009054906101000a900460ff1681565b60008060009054906101000a900473ffffffffffffffffffffffffffffffffffffffff16905090565b600960159054906101000a900460ff1681565b6000809054906101000a900473ffffffffffffffffffffffffffffffffffffffff1681565b60088181548110151561081e57fe5b906000526020600020016000915090505481565b600960019054906101000a900473ffffffffffffffffffffffffffffffffffffffff1673ffffffffffffffffffffffffffffffffffffffff163373ffffffffffffffffffffffffffffffffffffffff1614151561088e57600080fd5b6000809054906101000a900473ffffffffffffffffffffffffffffffffffffffff1673ffffffffffffffffffffffffffffffffffffffff16ff5b60015481565b600960019054906101000a900473ffffffffffffffffffffffffffffffffffffffff1673ffffffffffffffffffffffffffffffffffffffff163373ffffffffffffffffffffffffffffffffffffffff1614151561092a57600080fd5b80600960006101000a81548160ff02191690831515021790555050565b600960009054906101000a900460ff1681565b6000600960019054906101000a900473ffffffffffffffffffffffffffffffffffffffff1673ffffffffffffffffffffffffffffffffffffffff163373ffffffffffffffffffffffffffffffffffffffff161415156109b857600080fd5b603260ff16600960159054906101000a900460ff1660ff161015156109dc57600080fd5b6009601581819054906101000a900460ff168092919060010191906101000a81548160ff021916908360ff16021790555050610a406000809054906101000a900473ffffffffffffffffffffffffffffffffffffffff168a8a8a8a8a8a8a8a610a6d565b6001905098975050505050505050565b6000600960009054906101000a900460ff16905090565b60075481565b88600073ffffffffffffffffffffffffffffffffffffffff168173ffffffffffffffffffffffffffffffffffffffff1614151515610aaa57600080fd5b896000806101000a81548173ffffffffffffffffffffffffffffffffffffffff021916908373ffffffffffffffffffffffffffffffffffffffff1602179055508860018160001916905550876002816000191690555086600360006101000a81548160ff021916908360ff16021790555085600481600019169055508460058160001916905550836006816000191690555082600781600019169055508160089080519060200190610b5d929190610b6a565b5050505050505050505050565b828054828255906000526020600020908101928215610bac579160200282015b82811115610bab578251829060001916905591602001919060010190610b8a565b5b509050610bb99190610bbd565b5090565b610bdf91905b80821115610bdb576000816000905550600101610bc3565b5090565b905600a165627a7a72305820eccedfe47c244ef4a4eae64fa2eae9699b131106125513b4bbbac99d20a7c5160029a165627a7a72305820ac764906c02210488883c1617b38f32cf91ac0716a26b7f5a08dc4fbaf67f9200029",
  "source": "/**\r\n * @file IdentityManager.sol\r\n * @author sufay\r\n *\r\n * identity manager\r\n */\r\n\r\npragma solidity ^0.4.19;\r\n\r\n\r\nimport \"./Identity.sol\";\r\n\r\n\r\n/*\r\n * @title IdentityManager\r\n * @dev a contract as an identity manager performing identity operating\r\n */\r\ncontract IdentityManager {\r\n    mapping (address => Identity) public identityMap; // identity map storing all identity addresses\r\n    uint public identityCount; // identity count\r\n\r\n    address public admin; // contract administrator\r\n\r\n    /**\r\n     * @dev triggered when a new identity is created\r\n     * @param _owner the identity owner\r\n     * @param _identity the created identity address\r\n     */\r\n    event IdentityCreated(address indexed _owner, Identity indexed _identity);\r\n\r\n    /**\r\n     * @dev triggered when an identity is modified\r\n     * @param _owner the identity owner\r\n     * @param _identity the modified identity address\r\n     */\r\n    event IdentityChanged(address indexed _owner, Identity indexed _identity);\r\n\r\n    /**\r\n     * @dev triggered when an identity is deleted\r\n     * @param _owner the identity owner\r\n     * @param _identity the removed identity address\r\n     */\r\n    event IdentityRemoved(address indexed _owner, Identity indexed _identity);\r\n\r\n    /**\r\n     * @dev triggered when setting the validity of an identity\r\n     * @param _owner the identity owner\r\n     * @param _identity the destination identity\r\n     */\r\n    event IdentityValiditySet(address indexed _owner, Identity indexed _identity, bool indexed _validity);\r\n    \r\n    /**\r\n     * @dev assert an address is valid, that is, it isn't equal to 0\r\n     * @param addr address to be checked\r\n     */\r\n    modifier addressValid(address addr) {\r\n        require(addr != address(0));\r\n        _;\r\n    }\r\n\r\n    /**\r\n     * @dev assert there exists no identity for the sender \r\n     */\r\n    modifier noIdentity() {\r\n        require(identityMap[msg.sender] == address(0));\r\n        _;\r\n    }\r\n\r\n    /**\r\n     * @dev assert there exists an identity for the sender \r\n     */\r\n    modifier hasIdentity() {\r\n        require(identityMap[msg.sender] != address(0));\r\n        _;\r\n    }\r\n\r\n    /**\r\n     * @dev assert there exists an identity for the specified address \r\n     */\r\n    modifier hasIdentityByAddr(address addr) {\r\n        require(identityMap[addr] != address(0));\r\n        _;\r\n    }\r\n\r\n    /**\r\n     * @dev assert the sender has the permission of the operation related to an identity\r\n     * @param identity the identity to be operated\r\n     */\r\n    modifier hasIdentityPermission(Identity identity) {\r\n        require(identityMap[msg.sender] == identity);\r\n        _;\r\n    }\r\n\r\n    /**\r\n     * @dev assert the given address has the permission of administration\r\n     * @param addr the address to be checked\r\n     */\r\n    modifier hasAdminPermission(address addr) {\r\n        require(addr == admin);\r\n        _;\r\n    }\r\n\r\n    /**\r\n     * @dev constructor\r\n     */\r\n    constructor() public {\r\n        admin = msg.sender;\r\n    }\r\n\r\n    /**\r\n     * @dev fallback is noop function\r\n     */\r\n    function() public {\r\n        // noop\r\n    }\r\n\r\n    /** \r\n     * @dev create a new identity\r\n     * @param _id identity id\r\n     * @param _name name\r\n     * @param _gender gender\r\n     * @param _birthday birthday\r\n     * @param _nationality nationality\r\n     * @param _province province\r\n     * @param _city city\r\n     * @param _documentHashes the hashes of documents\r\n     * @return true if successful\r\n     */\r\n    function createIdentity(\r\n        bytes32 _id,\r\n        bytes32 _name,\r\n        uint8 _gender,\r\n        bytes32 _birthday,\r\n        bytes32 _nationality,\r\n        bytes32 _province,\r\n        bytes32 _city,\r\n        bytes32[] _documentHashes\r\n    )\r\n        public\r\n        noIdentity\r\n        returns (bool)\r\n    {\r\n        // create a new Identity contract\r\n        Identity identity = new Identity(msg.sender, _id, _name, _gender, _birthday, _nationality, _province, _city, _documentHashes);\r\n        \r\n        // add the identity to map\r\n        identityMap[msg.sender] = identity;\r\n\r\n        // increase the identity count\r\n        identityCount++;\r\n\r\n        // fire the created event\r\n        emit IdentityCreated(msg.sender, identity);\r\n\r\n        return true;\r\n    }\r\n\r\n    /** \r\n     * @dev modify all fileds of an identity\r\n     * @param _id identity id\r\n     * @param _name name\r\n     * @param _gender gender\r\n     * @param _birthday birthday\r\n     * @param _nationality nationality\r\n     * @param _province province\r\n     * @param _city city\r\n     * @param _documentHashes the hashes of documents\r\n     * @return true if successful, otherwise false\r\n     */\r\n    function modifyIdentity(\r\n        bytes32 _id,\r\n        bytes32 _name,\r\n        uint8 _gender,\r\n        bytes32 _birthday,\r\n        bytes32 _nationality,\r\n        bytes32 _province,\r\n        bytes32 _city,\r\n        bytes32[] _documentHashes\r\n    )\r\n        public\r\n        hasIdentity\r\n        returns (bool)\r\n    {\r\n        // get the Identity contract\r\n        Identity identity = identityMap[msg.sender];\r\n        \r\n        // modify the identity by call to the identity contract\r\n        if(identity.modify(_id, _name, _gender, _birthday, _nationality, _province, _city, _documentHashes))\r\n        {\r\n            // fire the changed event\r\n            emit IdentityChanged(msg.sender, identity);\r\n\r\n            return true;\r\n        }\r\n\r\n        return false;\r\n    }\r\n\r\n    /**\r\n     * @dev remove the identity of the sender\r\n     * @return true if successful, otherwise false\r\n     */\r\n    function removeIdentity() public hasIdentity returns (bool) {\r\n        // get the Identity contract\r\n        Identity identity = identityMap[msg.sender];\r\n        \r\n        // delete the identity by call to the identity contract\r\n        identity.remove();\r\n\r\n        // change the identity map\r\n        identityMap[msg.sender] = Identity(address(0));\r\n            \r\n        // decrease the identity count\r\n        identityCount--;\r\n\r\n        // fire the removed event\r\n        emit IdentityRemoved(msg.sender, identity);\r\n\r\n        return true;\r\n    }\r\n\r\n    /**\r\n     * @dev set validity to an identity of the given owner\r\n     * @param _owner the owner of the identity to be set\r\n     * @param _validity validity to be assigned\r\n     * @return true if successful\r\n     */\r\n    function setIdentityValidity(address _owner, bool _validity)\r\n        public\r\n        hasIdentityByAddr(_owner)\r\n        hasAdminPermission(msg.sender)\r\n        returns (bool)\r\n    {\r\n        // get the Identity\r\n        Identity identity = identityMap[_owner];\r\n\r\n        // set validity\r\n        identity.setValidity(_validity);\r\n\r\n        // fire the IdentityValiditySet event\r\n        emit IdentityValiditySet(_owner, identity, _validity);\r\n\r\n        return true;\r\n    }\r\n\r\n    /**\r\n     * @dev get the identity data of the specified address\r\n     * @param _owner the destination address\r\n     * @return the identity data\r\n     */\r\n    function getIdentityData(address _owner) public view hasIdentityByAddr(_owner) \r\n        returns(\r\n            address,\r\n            bytes32,\r\n            bytes32,\r\n            uint8,\r\n            bytes32,\r\n            bytes32,\r\n            bytes32,\r\n            bytes32,\r\n            bytes32[],\r\n            bool\r\n        )\r\n    {\r\n        // get the Identity contract\r\n        Identity identity = identityMap[_owner];\r\n\r\n        // get the identity data\r\n        return identity.getIdentity();\r\n    }\r\n\r\n    /**\r\n     * @dev get the address of the identity of the given owner\r\n     * @param _owner the owner whose identity address is to be retrieved\r\n     */\r\n    function getIdentityAddress(address _owner) public view returns (address) {\r\n        return identityMap[_owner];\r\n    }\r\n\r\n    /**\r\n     * @dev check if an address has an identity contract\r\n     * @param _address the address to be checked\r\n     * @return true if existing, otherwise false\r\n     */\r\n    function identityExists(address _address) public view returns (bool) {\r\n        if (identityMap[_address] != address(0)) {\r\n            return true;\r\n        }\r\n\r\n        return false;\r\n    }\r\n\r\n    /**\r\n     * @dev check if an identity is valid\r\n     * @param _owner the owner of the identity to be checked\r\n     * @return true if valid, otherwise false\r\n     */\r\n    function identityValid(address _owner) public view hasIdentityByAddr(_owner) returns (bool) {\r\n        // get the Identity contract\r\n        Identity identity = identityMap[_owner];\r\n\r\n        // call Identity\r\n        return identity.validated();\r\n    }\r\n\r\n    /**\r\n     * @dev get the identity count\r\n     * @return the identity count\r\n     */\r\n    function getIdentityCount() public view returns (uint) {\r\n        return identityCount;\r\n    }\r\n}\r\n",
  "sourcePath": "E:\\dear\\Project\\solidity\\Identity\\tmp-8004gNGxTKDeo58w\\box\\contracts\\IdentityManager.sol",
  "compiler": {
    "name": "solc",
    "version": "0.4.24+commit.e67f0147.Emscripten.clang"
  },
  "schemaVersion": "2.0.1",
  "updatedAt": "2018-08-16T12:56:29.291Z"
}